{
  "_format": "hh-sol-artifact-1",
  "contractName": "ChronosGuardAnchor",
  "sourceName": "contracts/ChronosGuardAnchor.sol",
  "abi": [
    {
      "inputs": [
        {
          "internalType": "address",
          "name": "_guard",
          "type": "address"
        },
        {
          "internalType": "address",
          "name": "_recovery",
          "type": "address"
        }
      ],
      "stateMutability": "nonpayable",
      "type": "constructor"
    },
    {
      "anonymous": false,
      "inputs": [
        {
          "indexed": false,
          "internalType": "address",
          "name": "beneficiary",
          "type": "address"
        }
      ],
      "name": "RecoveryTriggered",
      "type": "event"
    },
    {
      "anonymous": false,
      "inputs": [
        {
          "indexed": true,
          "internalType": "bytes32",
          "name": "newRoot",
          "type": "bytes32"
        },
        {
          "indexed": false,
          "internalType": "uint256",
          "name": "timestamp",
          "type": "uint256"
        }
      ],
      "name": "StateUpdated",
      "type": "event"
    },
    {
      "inputs": [],
      "name": "CHRONOS_GUARD",
      "outputs": [
        {
          "internalType": "address",
          "name": "",
          "type": "address"
        }
      ],
      "stateMutability": "view",
      "type": "function"
    },
    {
      "inputs": [],
      "name": "RECOVERY_ADDRESS",
      "outputs": [
        {
          "internalType": "address",
          "name": "",
          "type": "address"
        }
      ],
      "stateMutability": "view",
      "type": "function"
    },
    {
      "inputs": [],
      "name": "lastUpdateTime",
      "outputs": [
        {
          "internalType": "uint256",
          "name": "",
          "type": "uint256"
        }
      ],
      "stateMutability": "view",
      "type": "function"
    },
    {
      "inputs": [],
      "name": "stateRoot",
      "outputs": [
        {
          "internalType": "bytes32",
          "name": "",
          "type": "bytes32"
        }
      ],
      "stateMutability": "view",
      "type": "function"
    },
    {
      "inputs": [],
      "name": "triggerRecovery",
      "outputs": [],
      "stateMutability": "nonpayable",
      "type": "function"
    },
    {
      "inputs": [
        {
          "internalType": "bytes32",
          "name": "newRoot",
          "type": "bytes32"
        }
      ],
      "name": "updateStateRoot",
      "outputs": [],
      "stateMutability": "nonpayable",
      "type": "function"
    }
  ],
  "bytecode": "0x60c060405234801561001057600080fd5b506040516106ff3803806106ff8339818101604052810190610032919061010b565b8173ffffffffffffffffffffffffffffffffffffffff1660808173ffffffffffffffffffffffffffffffffffffffff16815250508073ffffffffffffffffffffffffffffffffffffffff1660a08173ffffffffffffffffffffffffffffffffffffffff168152505042600181905550505061014b565b600080fd5b600073ffffffffffffffffffffffffffffffffffffffff82169050919050565b60006100d8826100ad565b9050919050565b6100e8816100cd565b81146100f357600080fd5b50565b600081519050610105816100df565b92915050565b60008060408385031215610122576101216100a8565b5b6000610130858286016100f6565b9250506020610141858286016100f6565b9150509250929050565b60805160a05161058161017e600039600081816101a001526101d8015260008181610107015261020201526105816000f3fe608060405234801561001057600080fd5b50600436106100625760003560e01c8063139b962a1461006757806347144a31146100855780635ab870b41461008f5780639588eca2146100ad578063acaf80a1146100cb578063c8f33c91146100e7575b600080fd5b61006f610105565b60405161007c919061031e565b60405180910390f35b61008d610129565b005b6100976101d6565b6040516100a4919061031e565b60405180910390f35b6100b56101fa565b6040516100c29190610352565b60405180910390f35b6100e560048036038101906100e0919061039e565b610200565b005b6100ef6102d7565b6040516100fc91906103e4565b60405180910390f35b7f000000000000000000000000000000000000000000000000000000000000000081565b6301e1338060015461013b919061042e565b42101561017d576040517f08c379a0000000000000000000000000000000000000000000000000000000008152600401610174906104bf565b60405180910390fd5b7f4e45ce20b541734cacacd85093c8944b3d3560e9c9d5cf333a51d70375c1f6ba7f00000000000000000000000000000000000000000000000000000000000000006040516101cc919061031e565b60405180910390a1565b7f000000000000000000000000000000000000000000000000000000000000000081565b60005481565b7f000000000000000000000000000000000000000000000000000000000000000073ffffffffffffffffffffffffffffffffffffffff163373ffffffffffffffffffffffffffffffffffffffff161461028e576040517f08c379a00000000000000000000000000000000000000000000000000000000081526004016102859061052b565b60405180910390fd5b8060008190555042600181905550807ffc8bbde2318ed06d08909aca167949d5a0fa174454040085d3fc6c76c757c14e426040516102cc91906103e4565b60405180910390a250565b60015481565b600073ffffffffffffffffffffffffffffffffffffffff82169050919050565b6000610308826102dd565b9050919050565b610318816102fd565b82525050565b6000602082019050610333600083018461030f565b92915050565b6000819050919050565b61034c81610339565b82525050565b60006020820190506103676000830184610343565b92915050565b600080fd5b61037b81610339565b811461038657600080fd5b50565b60008135905061039881610372565b92915050565b6000602082840312156103b4576103b361036d565b5b60006103c284828501610389565b91505092915050565b6000819050919050565b6103de816103cb565b82525050565b60006020820190506103f960008301846103d5565b92915050565b7f4e487b7100000000000000000000000000000000000000000000000000000000600052601160045260246000fd5b6000610439826103cb565b9150610444836103cb565b925082820190508082111561045c5761045b6103ff565b5b92915050565b600082825260208201905092915050565b7f4163746976650000000000000000000000000000000000000000000000000000600082015250565b60006104a9600683610462565b91506104b482610473565b602082019050919050565b600060208201905081810360008301526104d88161049c565b9050919050565b7f4163636573732044656e69656400000000000000000000000000000000000000600082015250565b6000610515600d83610462565b9150610520826104df565b602082019050919050565b6000602082019050818103600083015261054481610508565b905091905056fea2646970667358221220865b0af8c7b1ac52e7c697c4ceaf1fbd6611f7eb9109b73b233716295f9a9c8764736f6c63430008140033",
  "linkReferences": {},
  "deployedLinkReferences": {}
}